{
  "contractName": "RentalAgreement",
  "abi": [
    {
      "constant": true,
      "inputs": [
        {
          "name": "",
          "type": "address"
        }
      ],
      "name": "hashes",
      "outputs": [
        {
          "name": "",
          "type": "bytes32"
        }
      ],
      "payable": false,
      "stateMutability": "view",
      "type": "function",
      "signature": "0x08e3399f"
    },
    {
      "constant": true,
      "inputs": [],
      "name": "startDate",
      "outputs": [
        {
          "name": "",
          "type": "uint256"
        }
      ],
      "payable": false,
      "stateMutability": "view",
      "type": "function",
      "signature": "0x0b97bc86"
    },
    {
      "constant": true,
      "inputs": [],
      "name": "securityDeposit",
      "outputs": [
        {
          "name": "",
          "type": "uint256"
        }
      ],
      "payable": false,
      "stateMutability": "view",
      "type": "function",
      "signature": "0x220e5ab3"
    },
    {
      "constant": true,
      "inputs": [],
      "name": "rentalPeriod",
      "outputs": [
        {
          "name": "",
          "type": "uint256"
        }
      ],
      "payable": false,
      "stateMutability": "view",
      "type": "function",
      "signature": "0x8c4b8475"
    },
    {
      "constant": true,
      "inputs": [],
      "name": "tenant",
      "outputs": [
        {
          "name": "",
          "type": "address"
        }
      ],
      "payable": false,
      "stateMutability": "view",
      "type": "function",
      "signature": "0xadf07791"
    },
    {
      "constant": true,
      "inputs": [],
      "name": "isInit",
      "outputs": [
        {
          "name": "",
          "type": "bool"
        }
      ],
      "payable": false,
      "stateMutability": "view",
      "type": "function",
      "signature": "0xb145a5b8"
    },
    {
      "constant": true,
      "inputs": [],
      "name": "endDate",
      "outputs": [
        {
          "name": "",
          "type": "uint256"
        }
      ],
      "payable": false,
      "stateMutability": "view",
      "type": "function",
      "signature": "0xc24a0f8b"
    },
    {
      "constant": true,
      "inputs": [
        {
          "name": "",
          "type": "address"
        }
      ],
      "name": "signatures",
      "outputs": [
        {
          "name": "",
          "type": "bool"
        }
      ],
      "payable": false,
      "stateMutability": "view",
      "type": "function",
      "signature": "0xc792f36d"
    },
    {
      "constant": true,
      "inputs": [],
      "name": "isTerminated",
      "outputs": [
        {
          "name": "",
          "type": "bool"
        }
      ],
      "payable": false,
      "stateMutability": "view",
      "type": "function",
      "signature": "0xd1cc9976"
    },
    {
      "constant": true,
      "inputs": [],
      "name": "landlord",
      "outputs": [
        {
          "name": "",
          "type": "address"
        }
      ],
      "payable": false,
      "stateMutability": "view",
      "type": "function",
      "signature": "0xdc1997ea"
    },
    {
      "constant": true,
      "inputs": [],
      "name": "isSigned",
      "outputs": [
        {
          "name": "",
          "type": "bool"
        }
      ],
      "payable": false,
      "stateMutability": "view",
      "type": "function",
      "signature": "0xe66a6b22"
    },
    {
      "constant": true,
      "inputs": [],
      "name": "rentAmount",
      "outputs": [
        {
          "name": "",
          "type": "uint256"
        }
      ],
      "payable": false,
      "stateMutability": "view",
      "type": "function",
      "signature": "0xf8ef1e13"
    },
    {
      "inputs": [],
      "payable": false,
      "stateMutability": "nonpayable",
      "type": "constructor",
      "signature": "constructor"
    },
    {
      "payable": true,
      "stateMutability": "payable",
      "type": "fallback"
    },
    {
      "constant": false,
      "inputs": [
        {
          "name": "_landlord",
          "type": "address"
        },
        {
          "name": "_tenant",
          "type": "address"
        },
        {
          "name": "_rentAmount",
          "type": "uint256"
        },
        {
          "name": "_securityDeposit",
          "type": "uint256"
        },
        {
          "name": "_rentalPeriod",
          "type": "uint256"
        }
      ],
      "name": "initialize",
      "outputs": [],
      "payable": false,
      "stateMutability": "nonpayable",
      "type": "function",
      "signature": "0xd13f90b4"
    },
    {
      "constant": false,
      "inputs": [
        {
          "name": "signer",
          "type": "address"
        }
      ],
      "name": "checkHash",
      "outputs": [
        {
          "name": "",
          "type": "bool"
        }
      ],
      "payable": false,
      "stateMutability": "nonpayable",
      "type": "function",
      "signature": "0xf38caa12"
    },
    {
      "constant": false,
      "inputs": [],
      "name": "sign",
      "outputs": [],
      "payable": true,
      "stateMutability": "payable",
      "type": "function",
      "signature": "0x2ca15122"
    },
    {
      "constant": false,
      "inputs": [],
      "name": "terminate",
      "outputs": [],
      "payable": false,
      "stateMutability": "nonpayable",
      "type": "function",
      "signature": "0x0c08bf88"
    },
    {
      "constant": false,
      "inputs": [],
      "name": "releaseDeposit",
      "outputs": [],
      "payable": false,
      "stateMutability": "nonpayable",
      "type": "function",
      "signature": "0x1e9810e9"
    }
  ],
  "bytecode": "0x608060405234801561001057600080fd5b506007805462ff000019169055610c778061002c6000396000f3fe6080604052600436106100f05763ffffffff7c010000000000000000000000000000000000000000000000000000000060003504166308e3399f81146102825780630b97bc86146102c75780630c08bf88146102dc5780631e9810e9146102f3578063220e5ab3146103085780632ca151221461031d5780638c4b847514610325578063adf077911461033a578063b145a5b81461036b578063c24a0f8b14610394578063c792f36d146103a9578063d13f90b4146103dc578063d1cc99761461042b578063dc1997ea14610440578063e66a6b2214610455578063f38caa121461046a578063f8ef1e131461049d575b600154600160a060020a03163314610178576040805160e560020a62461bcd02815260206004820152602860248201527f596f7520617265206e6f7420617574686f72697a656420746f206d616b65206160448201527f207061796d656e74000000000000000000000000000000000000000000000000606482015290519081900360840190fd5b6000600454600554420381151561018b57fe5b04600101600254029050803410151515610215576040805160e560020a62461bcd02815260206004820152602f60248201527f596f75206d7573742073656e6420656e6f7567682045544820746f20636f766560448201527f72207468652072656e74206f7765640000000000000000000000000000000000606482015290519081900360840190fd5b60405130903480156108fc02916000818181858888f19350505050158015610241573d6000803e3d6000fd5b5034819003600081111561027e57604051339082156108fc029083906000818181858888f1935050505015801561027c573d6000803e3d6000fd5b505b5050005b34801561028e57600080fd5b506102b5600480360360208110156102a557600080fd5b5035600160a060020a03166104b2565b60408051918252519081900360200190f35b3480156102d357600080fd5b506102b56104c4565b3480156102e857600080fd5b506102f16104ca565b005b3480156102ff57600080fd5b506102f1610625565b34801561031457600080fd5b506102b5610788565b6102f161078e565b34801561033157600080fd5b506102b5610a47565b34801561034657600080fd5b5061034f610a4d565b60408051600160a060020a039092168252519081900360200190f35b34801561037757600080fd5b50610380610a5c565b604080519115158252519081900360200190f35b3480156103a057600080fd5b506102b5610a6b565b3480156103b557600080fd5b50610380600480360360208110156103cc57600080fd5b5035600160a060020a0316610a71565b3480156103e857600080fd5b506102f1600480360360a08110156103ff57600080fd5b50600160a060020a03813581169160208101359091169060408101359060608101359060800135610a86565b34801561043757600080fd5b50610380610b9b565b34801561044c57600080fd5b5061034f610ba9565b34801561046157600080fd5b50610380610bb8565b34801561047657600080fd5b506103806004803603602081101561048d57600080fd5b5035600160a060020a0316610bc1565b3480156104a957600080fd5b506102b5610c45565b60096020526000908152604090205481565b60055481565b600054600160a060020a03163314610552576040805160e560020a62461bcd02815260206004820152602360248201527f596f7520617265206e6f7420617574686f72697a656420746f207465726d696e60448201527f6174650000000000000000000000000000000000000000000000000000000000606482015290519081900360840190fd5b600754610100900460ff16156105d8576040805160e560020a62461bcd02815260206004820152603060248201527f5468652072656e74616c2061677265656d656e742068617320616c726561647960448201527f206265656e207465726d696e6174656400000000000000000000000000000000606482015290519081900360840190fd5b6007805461ff00191661010017905560008054604051600160a060020a0390911691303180156108fc02929091818181858888f19350505050158015610622573d6000803e3d6000fd5b50565b600054600160a060020a031633146106ad576040805160e560020a62461bcd02815260206004820152602d60248201527f596f7520617265206e6f7420617574686f72697a656420746f2072656c65617360448201527f6520746865206465706f73697400000000000000000000000000000000000000606482015290519081900360840190fd5b60065442101561072d576040805160e560020a62461bcd02815260206004820152602360248201527f5468652072656e74616c20706572696f6420686173206e6f7420656e6465642060448201527f7965740000000000000000000000000000000000000000000000000000000000606482015290519081900360840190fd5b60035460065462093a80014210156107455760025490035b600154604051600160a060020a039091169082156108fc029083906000818181858888f1935050505015801561077f573d6000803e3d6000fd5b50506000600355565b60035481565b600054600160a060020a03163314806107b15750600154600160a060020a031633145b1515610807576040805160e560020a62461bcd02815260206004820152601e60248201527f596f7520617265206e6f7420617574686f72697a656420746f207369676e0000604482015290519081900360640190fd5b60035460025401341461088a576040805160e560020a62461bcd02815260206004820152603460248201527f596f75206e65656420746f20706179207468652072656e7420616d6f756e742060448201527f616e64207365637572697479206465706f736974000000000000000000000000606482015290519081900360840190fd5b600054600160a060020a03163314156109365760008054600160a060020a031681526008602052604090205460ff161561090e576040805160e560020a62461bcd02815260206004820152601b60248201527f4c616e646c6f72642068617320616c7265616479207369676e65640000000000604482015290519081900360640190fd5b60008054600160a060020a03168152600860205260409020805460ff191660011790556109e3565b600154600160a060020a03163314156109e357600154600160a060020a031660009081526008602052604090205460ff16156109bc576040805160e560020a62461bcd02815260206004820152601960248201527f54656e616e742068617320616c7265616479207369676e656400000000000000604482015290519081900360640190fd5b60018054600160a060020a03166000908152600860205260409020805460ff191690911790555b60008054600160a060020a031681526008602052604090205460ff168015610a255750600154600160a060020a031660009081526008602052604090205460ff165b15610a45576007805460ff19166001179055426005819055600454016006555b565b60045481565b600154600160a060020a031681565b60075462010000900460ff1681565b60065481565b60086020526000908152604090205460ff1681565b60075462010000900460ff161515610b9457600054600160a060020a0316158015610aba5750600154600160a060020a0316155b1515610b36576040805160e560020a62461bcd02815260206004820152602d60248201527f52656e74616c2061677265656d656e742068617320616c72656164792062656560448201527f6e20696e697469616c697a656400000000000000000000000000000000000000606482015290519081900360840190fd5b60008054600160a060020a0380881673ffffffffffffffffffffffffffffffffffffffff199283161790925560018054928716929091169190911790556002839055600382905560048190556007805462ff00001916620100001790555b5050505050565b600754610100900460ff1681565b600054600160a060020a031681565b60075460ff1681565b60408051600160a060020a0383166c01000000000000000000000000810260208084019190915283516014818503018152603490930184528251928101929092206000918252600990925291822054811415610c21576001915050610c40565b600160a060020a03831660009081526009602052604081209190915590505b919050565b6002548156fea165627a7a72305820a3e70d0a12cb4d167f8e12760cc60c263161808577254bfb45d79da4fa1135240029",
  "source": "// SPDX-License-Identifier: MIT\r\npragma solidity ^0.5.0;\r\n\r\ncontract RentalAgreement {\r\n    address payable public landlord;\r\n    address payable public tenant;\r\n    uint256 public rentAmount;\r\n    uint256 public securityDeposit;\r\n    uint256 public rentalPeriod;\r\n    uint256 public startDate;\r\n    uint256 public endDate;\r\n    bool public isSigned;\r\n    bool public isTerminated;\r\n    bool public isInit;\r\n    mapping(address => bool) public signatures;\r\n    mapping(address => bytes32) public hashes;\r\n\r\n    constructor() public {\r\n        isInit = false;\r\n    }\r\n\r\n    function initialize(\r\n        address payable _landlord,\r\n        address payable _tenant,\r\n        uint256 _rentAmount,\r\n        uint256 _securityDeposit,\r\n        uint256 _rentalPeriod\r\n    ) public {\r\n        if (!isInit) {\r\n            require(\r\n                address(landlord) == address(0) &&\r\n                    address(tenant) == address(0),\r\n                \"Rental agreement has already been initialized\"\r\n            );\r\n            landlord = _landlord;\r\n            tenant = _tenant;\r\n            rentAmount = _rentAmount;\r\n            securityDeposit = _securityDeposit;\r\n            rentalPeriod = _rentalPeriod;\r\n            isInit = true;\r\n            \r\n        }\r\n    }\r\n\r\n    function checkHash(address signer) public returns(bool) {\r\n        bytes32 hash = keccak256(abi.encodePacked(signer));\r\n        if (hashes[signer] == hash) {\r\n            return true;\r\n        } else {\r\n            hashes[signer] = hash;\r\n            return false;\r\n        }\r\n    }\r\n\r\n    function sign() public payable {\r\n        require(\r\n            msg.sender == landlord || msg.sender == tenant,\r\n            \"You are not authorized to sign\"\r\n        );\r\n        require(\r\n            msg.value == rentAmount + securityDeposit,\r\n            \"You need to pay the rent amount and security deposit\"\r\n        );\r\n\r\n        if (msg.sender == landlord ) {\r\n            require(!signatures[landlord], \"Landlord has already signed\");\r\n            signatures[landlord] = true;\r\n        } else if (msg.sender == tenant) {\r\n            require(!signatures[tenant], \"Tenant has already signed\");\r\n            signatures[tenant] = true;\r\n        }\r\n\r\n        if (signatures[landlord] && signatures[tenant]) {\r\n            isSigned = true;\r\n            startDate = block.timestamp;\r\n            endDate = startDate + rentalPeriod;\r\n        }\r\n    }\r\n\r\n    function terminate() public {\r\n        require(msg.sender == landlord, \"You are not authorized to terminate\");\r\n        require(\r\n            !isTerminated,\r\n            \"The rental agreement has already been terminated\"\r\n        );\r\n\r\n        isTerminated = true;\r\n        landlord.transfer(address(this).balance);\r\n    }\r\n\r\n    function releaseDeposit() public {\r\n        require(\r\n            msg.sender == landlord,\r\n            \"You are not authorized to release the deposit\"\r\n        );\r\n        require(\r\n            block.timestamp >= endDate,\r\n            \"The rental period has not ended yet\"\r\n        );\r\n\r\n        uint256 refundAmount = securityDeposit;\r\n        if (block.timestamp < endDate + 1 weeks) {\r\n            refundAmount -= rentAmount;\r\n        }\r\n\r\n        tenant.transfer(refundAmount);\r\n        securityDeposit = 0;\r\n    }\r\n\r\n    function() external payable {\r\n        require(\r\n            msg.sender == tenant,\r\n            \"You are not authorized to make a payment\"\r\n        );\r\n\r\n        uint256 totalRentOwed = rentAmount *\r\n            ((block.timestamp - startDate) / rentalPeriod + 1);\r\n        require(\r\n            msg.value >= totalRentOwed,\r\n            \"You must send enough ETH to cover the rent owed\"\r\n        );\r\n\r\n        // Update the contract balance\r\n        address(this).transfer(msg.value);\r\n\r\n        // Refund any excess ETH back to the tenant\r\n        uint256 refundAmount = msg.value - totalRentOwed;\r\n        if (refundAmount > 0) {\r\n            msg.sender.transfer(refundAmount);\r\n        }\r\n    }\r\n}\r\n",
  "sourcePath": "C:/College/Sem 6/Blockchain/Project/rental-agreement/contracts/rentalAgreement.sol",
  "compiler": {
    "name": "solc",
    "version": "0.5.0+commit.1d4f565a.Emscripten.clang"
  },
  "schemaVersion": "3.0.1",
  "updatedAt": "2023-04-20T09:41:27.633Z",
  "devdoc": {
    "methods": {}
  },
  "userdoc": {
    "methods": {}
  }
}